:020000040800F2
:1000000090080020A5010008AD010008AF0100081C
:1000100000000000000000000000000000000000E0
:10002000000000000000000000000000B101000816
:100030000000000000000000B3010008010B0008F0
:10004000B7010008B7010008B7010008B7010008B0
:10005000B7010008B7010008B7010008B7010008A0
:10006000B7010008B7010008B7010008B701000890
:10007000B7010008B7010008B7010008B701000880
:10008000B7010008B701000800000000B701000830
:10009000B7010008B7010008B7010008B701000860
:1000A000B7010008B7010008B7010008950B000868
:1000B000CD0B000800000000B701000800000000A0
:1000C00000F002F800F042F80CA030C808382418FC
:1000D0002D18A246671EAB4654465D46AC4201D180
:1000E00000F034F87E460F3E0FCCB6460126334270
:1000F00000D0FB1AA246AB46334318470C1400004D
:100100002C140000103A02D378C878C1FAD85207EC
:1001100001D330C830C101D504680C6070470000BD
:100120000023002400250026103A01D378C1FBD813
:10013000520700D330C100D50B6070471FB500983F
:10014000019900F008FA1FBD10B510BD00F05DFA6E
:100150001146FFF7F3FF00F0F5FE00F075FA03B467
:10016000FFF7F2FF03BC00F0A5FA000070B50546EA
:100170000C46164602E00FCC0FC5103E102EFAD2E8
:10018000082E02D303CC03C5083E042E07D301CCAE
:1001900001C5361F03E021782970641C6D1C761E92
:1001A000F9D270BD0748804707480047FEE7FEE7E1
:1001B000FEE7FEE7FEE7FEE704480549054A064B71
:1001C00070470000190B0008C100000890020020D1
:1001D00090080020900400209004002070B506468E
:1001E00000F09CF9056830460B30C408E400B442C6
:1001F00001D8002070BD68682A46002818D0016820
:10020000A14211D30B46214608318B4208D34368E3
:1002100001194B6003681B1B0B605160046001E017
:1002200041685160001D70BD024640680028E6D15B
:100230002146284600F07AF90028DCD170BD70B55F
:100240000446051F00F06AF90068002C1AD04468C3
:1002500001E020466468002C01D0AC42F9D301686B
:100260000A18AA4204D12A6805468918016000E0EC
:10027000456028684119A14205D16168696021681B
:100280004018286070BD6C6070BD0000034670B5FA
:1002900002460B439B070FD10E4CE60100E008C25B
:1002A00008C91D1B9D433542F9D0D9B21170521CAB
:1002B00000290DD01B0AF8E70B78491C1370521C5B
:1002C000002B05D00B78491C1370521C002BF3D166
:1002D00070BD00000101010130B5441C03E001784C
:1002E000401C00290DD08107F9D10B4BDD0104C85A
:1002F000D11A91432940FAD0001B0A0603D0C01E30
:1003000030BD001B30BD0A0401D0801E30BD090283
:10031000FCD0401E30BD0000010101010346F0B5D4
:100320000B439B072DD1244DEF01042A29D308C884
:1003300010C95E1B9E43121F3E4017D0D8B2E1B2D7
:10034000401A3106014310D198B2A1B2401A3104CB
:1003500001430AD118022102000A090A401A310297
:10036000014302D1180E210E401AF0BDA342DCD089
:1003700018BA21BA884201D90120F0BD0020C0433B
:10038000F0BD002A01D10020F0BD03780C78401C9C
:10039000491C002B0DD0A3420BD1521E09D003786B
:1003A0000C78401C491C002B03D0A34201D1521EE3
:1003B000EBD1181BF0BD000001010101002203096F
:1003C0008B422CD3030A8B4211D300239C464EE070
:1003D00003460B433CD4002243088B4231D303092C
:1003E0008B421CD3030A8B4201D394463FE0C309DE
:1003F0008B4201D3CB01C01A524183098B4201D3F6
:100400008B01C01A524143098B4201D34B01C01AE0
:10041000524103098B4201D30B01C01A5241C30858
:100420008B4201D3CB00C01A524183088B4201D3C7
:100430008B00C01A524143088B4201D34B00C01AB3
:100440005241411A00D201465241104670475DE0C8
:10045000CA0F00D04942031000D34042534000224B
:100460009C4603098B422DD3030A8B4212D3FC22F4
:10047000890112BA030A8B420CD3890192118B4273
:1004800008D3890192118B4204D389013AD0921189
:1004900000E08909C3098B4201D3CB01C01A524144
:1004A00083098B4201D38B01C01A524143098B420D
:1004B00001D34B01C01A524103098B4201D30B01F6
:1004C000C01A5241C3088B4201D3CB00C01A52411B
:1004D00083088B4201D38B00C01A5241D9D2430802
:1004E0008B4201D34B00C01A5241411A00D201463F
:1004F000634652415B10104601D34042002B00D5A9
:100500004942704763465B1000D3404201B500206A
:10051000C046C04602BD70477047704700487047EC
:1005200038020020704770477047704738B504465E
:100530000A4600206946C046C046002805D002464B
:100540002046009900F040F8012038BD10B5012088
:1005500000F054F810BDF8B5C046C046054600206E
:100560000C461020C0460646A819A0420DD93246B6
:1005700069460020C046C046070001D100F03EF8A1
:100580000098A04200D00546C419FFF7C7FFF61D2A
:1005900007460560F008C0004619284600F008F834
:1005A000B44204D031463868A21B00F00DF8F8BD03
:1005B000002101604160806070471020704700009A
:1005C000004870473002002010B50346406801E043
:1005D00003464068002801D08842F9D31868C31840
:1005E0008B4206D0CB1CD808C000001D411A521AFD
:1005F0000146081D0A60FFF722FE10BD10B500F08D
:1006000031F800F029F810BD70477546FFF7D8FFA4
:10061000AE46050069465346C008C000854618B07E
:1006200020B5FFF7C9FD60BC00274908B646002683
:10063000C0C5C0C5C0C5C0C5C0C5C0C5C0C5C0C592
:10064000403D49008D46704710B50446C046C0463F
:100650002046FFF784FD10BD10B5002801D000F042
:1006600029F810BD10B5012805D0002103A000F025
:1006700027F8012010BD09A1F8E7000053494752AF
:10068000544D454D3A204F7574206F662068656162
:1006900070206D656D6F7279000000003A2048652A
:1006A0006170206D656D6F727920636F7272757005
:1006B0007465640001491820ABBEFEE72600020005
:1006C00070B505460C460A2000E06D1C00F012F8DB
:1006D000002D06D028780028F7D102E0641C00F035
:1006E00009F8002C02D020780028F7D10A2000F069
:1006F00001F870BD08B5694608700320ABBE08BD9F
:10070000F0B50A4600210023002400BF3DE001258A
:100710008D402B4615681D402C469C4234D11579DE
:10072000012D02D01579022D16D185684F000326C0
:10073000BE40B543856055794E00B5408668354367
:100740008560858801268E40B543858085889679A9
:100750008E40B6B23543858005684F000326BE4003
:10076000B543056015794E00B54006683543056010
:10077000C5684F000326BE40B543C560D5794E001D
:10078000B540C6683543C560491C1029BFD3F0BDCC
:10079000F0B5002300244D07EE0E1546B5402B465C
:1007A000CD10AE0005462035AD594E07F70E0F2689
:1007B000BE40B543CE10B60007462037BD51CD1020
:1007C000AE003D46AD591D432C46CD10AD003E4612
:1007D0007451F0BD00218278002A27D0184A0323E3
:1007E0001B02D21803789B109B00D1580278920705
:1007F000D30EFF229A400B46934319464278920744
:10080000120E03789B07DB0E9A4011430C4A032318
:100810001B02D21803789B109B00D1500278D3069C
:10082000DB0E01229A40064B1A6007E00278D306DD
:10083000DB0E01229A40024B80331A6070470000A1
:1008400000E100E010B5002819DA1A4A03071B0F6F
:10085000083B9B089B00D2588307DC0EFF23A34074
:100860009A438B071B0E8407E40EA3401A43114BD7
:100870000407240F083CA408A4001A5118E00E4AEB
:1008800003231B02D21883089B00D2588307DC0E77
:10089000FF23A3409A438B071B0E8407E40EA3405B
:1008A0001A43054B032424021B198408A4001A517F
:1008B00010BD00001CED00E000E100E0FEB50446C4
:1008C0000025002600200190009000275048406835
:1008D0000C2108400546002D04D0042D05D0082D1C
:1008E00028D105E04B48206027E04A48206024E0FA
:1008F000474840680F21890408400646444840683C
:100900000121090408400190B00C861C01980028C0
:1009100003D14148704320600BE03D48C06A0007A6
:10092000000F401C00903B480099FFF747FD7043C3
:10093000206002E03748206000BF00BF34484068B4
:10094000F021084005462D093448475D2068F840ED
:1009500060602F48406807210902084005462D0ABB
:100960002E48475D6068F840A0602948006BFF2171
:1009700001310840884202D02948E0600DE0244857
:100980004068012189030840884203D0A0684008DC
:10099000E06002E0A0688008E0601D48006B402134
:1009A0000840402802D01F48206102E00120C00317
:1009B00020611748006B10210840102802D015480C
:1009C000606101E0206860611148006B8007800F62
:1009D000002802D1A068A06119E00D48006B8007D3
:1009E000800F012802D12068A06110E00848006B48
:1009F0008007800F022802D18003A06107E004482D
:100A0000006B8007800F032801D10248A061FEBD62
:100A10000010024000127A0000093D002000002072
:100A2000809FD500128000000CB50020019000903E
:100A3000314800680121090408432F49086000BFBC
:100A40002D48006801214904084000900198401C8D
:100A500001900098002804D10521090201988842DC
:100A6000EED125480068012149040840002802D041
:100A70000120009001E0002000900098012839D169
:100A800011201E4908601C4840681B494860084600
:100A900040684860084640683F2109048843164979
:100AA000486008464068112109040843124948601B
:100AB000084600680121090608430F49086000BF85
:100AC0000D4800680121490608400028F8D00A486E
:100AD0004068800880000849486008464068022154
:100AE00008430549486000BF034840680C2108409E
:100AF0000828F9D10CBD000000100240002002407F
:100B000004480068002804D002480068401E0149DB
:100B1000086070470000002010B51B4800680121E4
:100B200008431949086008464068184908401649B2
:100B3000486008460068164908401349086008469E
:100B400000680121890488430F490860084640680D
:100B50003F21090488430C4948600846C06A0009DF
:100B60000001C8620846006BFF21543188430649E2
:100B700008630846406B40084000486300208860D6
:100B8000FFF752FF10BD0000001002400CB8FFF844
:100B9000FFFFF6FE10B50B490B4800F04FF8002898
:100BA0000ED0094800F0FEF8C4B22146064800F015
:100BB000FEF800BF8021044800F036F80028F9D084
:100BC00010BD0000050105000038014010B50C49BA
:100BD0000C4800F033F8002810D00A4800F0E2F882
:100BE000C1B209480468601C074A106007480155F3
:100BF00010460068C005C00D1146086010BD000019
:100C000005010500004400400800002030000020DD
:100C1000002904D0026801231A43026003E002683D
:100C2000520852000260704702460020D3690B4010
:100C3000002B01D0012000E00020704770B5024673
:100C40000B4600240021002500201E04350ED9B2D9
:100C500001268E403146012D02D11668314006E052
:100C6000022D02D15668314001E0966831401C0CDB
:100C70000126A6403446D6693440002903D0002C12
:100C800001D0012000E0002070BDF8B5034600242B
:100C9000002600960025002018460E04340ECEB221
:100CA00000960127009EB7403D46022C01D1001D51
:100CB00002E0032C00D10830002A03D006682E433E
:100CC000066002E00668AE430660F8BDF0B589B084
:100CD00004460D46002700200890002620684008A2
:100CE00040002060666803210903304688430646B9
:100CF000A86806436660266827480640E968686871
:100D000008432969084306432660A66803210902AF
:100D100030468843064668690643A66001A8FFF787
:100D2000CDFD1E48844202D10798089001E0039847
:100D3000089020680121C903084000280CD02968C8
:100D4000089A5000FFF73AFB07462968089A5000B6
:100D5000FFF734FB0E4609E029680898FFF72EFBE1
:100D6000074629680898FFF729FB0E4628684008BF
:100D7000B04200D87F1C20680121C9030840002828
:100D800006D03807460F3846054908403043074625
:100D9000A78109B0F0BD0000F3E9FFFF0038014072
:100DA000F0FF00000146888CC005C00D7047CA05E1
:100DB000D20D0285704710B5044600F05DFA20465A
:100DC00000F0E0FA012010BDF7B50D4616460024EC
:100DD0000098FFF781FA074600F04EFA1FA000F0D6
:100DE000D1FA009800F0CEFA1DA000F0CBFA3846F8
:100DF000323000F041F838460A30844201D10020F8
:100E0000FEBD002425E000F041FA2855002C09D051
:100E1000611E4819022213A1FFF780FA002801D1B0
:100E20000120EDE7042C08D3211F481905220EA14B
:100E3000FFF774FA002800D1E2E7032C08D3E11E83
:100E4000481904220AA1FFF769FA002800D1D7E760
:100E5000641CB442D7D30020D2E7000041542B00D9
:100E60000D0A00004F4B00004552524F5200000047
:100E70004641494C00000000F8B5064628E000F065
:100E800005FAA907890F6A465054681C8407A40F05
:100E90006D1C6846005D0D2800D019E0601C8407B9
:100EA000A40F6846005D0A2800D011E0601C84078A
:100EB000A40F6846005D0D2800D009E0601C84077F
:100EC000A40F6846005D0A2800D001E0012700BF9A
:100ED000002F01D1B542D2D30120F8BD03490860EB
:100EE00000BF024909680029FBD1704700000020BB
:100EF000FFB581B00D4616466C1E012701E00A20A1
:100F000047432046641E0028F9D1002410E03946EA
:100F10000198FFF753FA3030305539460198FFF702
:100F20004DFA0191641C0A213846FFF747FA07463B
:100F3000AC4203D20498401EA042E8D800203055AD
:100F400005B0F0BDF0B5FFB084B000208290002560
:100F50000190614840690121490408435E494861A4
:100F6000084640690121890408435B4948610846F5
:100F700040690121C904084357494861574800683E
:100F80000121090408435549086008460068C90161
:100F90000843524908600920C006006880088000A4
:100FA0000921C90608604D48006855210901084318
:100FB0004A4908600846C068552109010843474965
:100FC000C8607D21C90046480068FFF7F7F906466A
:100FD0004448864200D90EE03002000A401E4249D1
:100FE00048610321081FFFF72DFC00203E4988615E
:100FF0000720086100BF00F0D5F800F063F900BFDA
:101000003C2036498861082034492031088100BFDE
:1010100036A000F025F938A000F022F97D20C000AC
:10102000FFF75CFF00F0D8F9002804D136A000F0EB
:1010300017F900BFFEE739A000F012F9502000F0C8
:1010400029FA002804D13AA000F00AF900BFFEE70F
:101050003DA000F005F900F00FF900242AE000F0AF
:1010600015F902A9085502A8005D0A2821D1002D12
:1010700009D10722891C3AA0FFF750F9002814D1A2
:101080006846077A11E0002D0BDD0A2D09DA0422EB
:1010900002A935A0FFF742F9002806D101200190EE
:1010A00009E033A000F0DCF805E0681CC5B20024BC
:1010B000E443641CD3E700BF0198002807D00F2247
:1010C00031A1384600F0B6F933A000F0C9F800208D
:1010D0007FB004B0F0BD00000010024000080048DE
:1010E0000C000020FFFFFF0000E000E053544D33F0
:1010F00032463035310D0A00576966692041444354
:1011000020544553540D0A005769666920696E6979
:1011100074206572726F720D0A000000576966696B
:1011200020696E697420646F6E650D0A000000000E
:101130004572726F7220696E2073657276657220D7
:10114000696E69740D0A000057616974696E6720E1
:10115000666F7220636F6E6E2E2E2E0D0A000000D9
:10116000434F4E4E454354002B495044000000006D
:101170004572726F7220696E2067657474696E675C
:1011800020646174610D0A0048656C6C6F20776F94
:10119000726C640D0A0D0A00446174612073656EFF
:1011A0007400000000B589B02348806901218903DB
:1011B00008432149886101220921C806FFF7E8FA9E
:1011C00001220A210920C006FFF7E2FA01204002AD
:1011D000019003216846417202210172002181724F
:1011E0000121C17201A90920C006FFF789FA012077
:1011F000800201900321684641720221017201219F
:101200008172C17201A90920C006FFF779FA4B204B
:10121000C001039000200490059006900C200790D8
:101220000020089003A90548FFF750FD012103485D
:10123000FFF7EEFC09B000BD00100240003801408D
:1012400010B5044600BF80210448FFF7EDFC0028DC
:10125000F9D021460148FFF7AAFD10BD0038014032
:1012600010B5044603E02078FFF7EAFF641C2078FD
:101270000028F8D110BD000002480068024908604B
:1012800070470000080000200400002000BF0A4949
:1012900009680A4A12689142F9D008490A6809683F
:1012A000491C064B19600649885C19460988C9051E
:1012B000C90D1A4611607047080000200400002084
:1012C0003000002000B589B02448C06901214904DC
:1012D00008432249C861012202210920C006FFF704
:1012E00057FA012203210920C006FFF751FA042012
:1012F000019003216846417202210172002181722E
:101300000121C17201A90920C006FFF7F9F90820DF
:10131000019003216846417202210172012181720C
:10132000C17201A90920C006FFF7EAF9E1204002D5
:10133000039000200490059006900C200790002058
:10134000089003A90648FFF7C1FC00F029F8012125
:101350000348FFF75DFC09B000BD0000001002402B
:101360000044004010B5044600BF80210448FFF748
:101370005BFC0028F9D021460148FFF718FD10BD9D
:101380000044004010B5044606E02078FFF7EAFF6D
:10139000641C0120FFF7A2FD20780028F5D110BDC4
:1013A00008B5012209490A48FFF76FFC00220949E4
:1013B0000748FFF76AFC1C21684601700021417054
:1013C00001218170FFF706FA08BD00000501050044
:1013D000004400400701070000B5A1B0802201A928
:1013E0000CA0FFF7F1FC0C48FFF778FD802201A963
:1013F0000AA0FFF7E9FC002801D121B000BD80223E
:1014000001A909A0FFF7E0FC002800D1F5E70120C1
:10141000F3E7000052535400B80B000043574D4F00
:1014200044453D31000000004349504D55583D3181
:101430000000000070B588B004460D4616460D2227
:1014400010A16846FEF792FE6846C4720A2303AAFA
:10145000013204213046FFF74BFD0D2168464174EF
:101460000A2181740021C174FFF7A5FC6420FFF7F5
:1014700035FD2846FFF79FFC6846FEF7E0FE012099
:1014800008B070BD41542B43495053454E443D3143
:101490002C00000030B5A1B00546802201A90FA0A4
:1014A000FFF792FC002801D121B030BD802201A9B4
:1014B0000DA0FFF789FC002800D1F5E71C20FEF7FE
:1014C0008DFE04460BA12046FEF7E0FE2046FFF706
:1014D00072FC2046FEF7B3FE0120E5E743574D4F6F
:1014E00044453D32000000004349504D55583D31C0
:1014F0000000000041542B43495053455256455279
:101500003D312C38300D0A0028150008000000205D
:1015100030000000040100085815000830000020C9
:10152000600800002001000800000000000000002A
:1015300000000000006CDC02000000000000000061
:101540000102030406070809000000000102030469
:0815500001020304060708096B
:04000005080001A549
:00000001FF
