:020000040800F2
:10000000780600209D010008A5010008A70100084E
:1000100000000000000000000000000000000000E0
:10002000000000000000000000000000A90100081E
:100030000000000000000000AB01000849090008B2
:10004000AF010008AF010008AF010008AF010008D0
:10005000AF010008AF010008AF010008AF010008C0
:10006000AF010008AF010008AF010008AF010008B0
:10007000AF010008AF010008AF010008AF010008A0
:10008000AF010008AF01000800000000AF01000848
:10009000AF010008AF010008AF010008AF01000880
:1000A000AF010008AF010008AF010008AF01000870
:1000B000AF01000800000000AF01000800000000D0
:1000C00000F002F800F03EF80CA030C80838241800
:1000D0002D18A246671EAB4654465D46AC4201D180
:1000E00000F030F87E460F3E0FCCB6460126334274
:1000F00000D0FB1AA246AB4633431847240F00003A
:10010000440F0000103A02D378C878C1FAD85207D9
:1001100001D330C830C101D504680C6070470000BD
:100120000023002400250026103A01D378C1FBD813
:10013000520700D330C100D50B6070471FB51FBDFB
:1001400010B510BD00F0EDF91146FFF7F7FF00F014
:1001500011FE00F005FA03B4FFF7F2FF03BC00F054
:100160000BFA000070B505460C46164602E00FCCAF
:100170000FC5103E102EFAD2082E02D303CC03C5B1
:10018000083E042E07D301CC01C5361F03E02178B9
:100190002970641C6D1C761EF9D270BD074880471B
:1001A00007480047FEE7FEE7FEE7FEE7FEE7FEE75B
:1001B00004480549054A064B7047000061090008DC
:1001C000C100000878000020780600207802002096
:1001D00078020020002203098B422CD3030A8B42B1
:1001E00011D300239C464EE003460B433CD400222F
:1001F00043088B4231D303098B421CD3030A8B4241
:1002000001D394463FE0C3098B4201D3CB01C01A0E
:10021000524183098B4201D38B01C01A52414309D9
:100220008B4201D34B01C01A524103098B4201D3C7
:100230000B01C01A5241C3088B4201D3CB00C01A34
:10024000524183088B4201D38B00C01A52414308AC
:100250008B4201D34B00C01A5241411A00D20146D1
:100260005241104670475DE0CA0F00D0494203106A
:1002700000D34042534000229C4603098B422DD3B9
:10028000030A8B4212D3FC22890112BA030A8B4261
:100290000CD3890192118B4208D3890192118B42B0
:1002A00004D389013AD0921100E08909C3098B4235
:1002B00001D3CB01C01A524183098B4201D38B0178
:1002C000C01A524143098B4201D34B01C01A52411B
:1002D00003098B4201D30B01C01A5241C3088B4260
:1002E00001D3CB00C01A524183088B4201D38B004B
:1002F000C01A5241D9D243088B4201D34B00C01AD5
:100300005241411A00D20146634652415B101046E9
:1003100001D34042002B00D54942704763465B1031
:1003200000D3404201B50020C046C04602BD704720
:1003300070477047F0B5FF252D04C609C209FF2795
:1003400004462E400137CB093E4348402A402B400B
:100350000746002A6BD0002B69D0AA4267D0AB4277
:1003600065D0002800DA32460125ED0529432C43EB
:1003700009022002090AD21A4B0C7F24E31A434CCB
:10038000000A7C44E35C7D242404121914145B00ED
:10039000A218884201D3521C00E0400049420C469A
:1003A0005C4324115C43DB016415E318040A5C43DD
:1003B000C502200D0C4644436419250A5D432303FE
:1003C000EC0C0D46654300030019EB184C42A342A8
:1003D00001D35B18401CD4052018002B07D05B000C
:1003E000C91804D3401C002901D1400840003F2116
:1003F00089048A4209D3002A08DC1106090F04D0B7
:10040000032149074018C00FC007F0BD0122410079
:10041000120689187F2252069142F6D20521490719
:10042000C84201D59010F0BDFF20C005F0BD002FDF
:1004300000DA32461648AA4207D2AB4205D2190268
:10044000090E17D0F80FC007F0BDFF2563002D0679
:10045000AB42F9D84900A942F6D8AB4201D1A94232
:10046000F2D0A94201D1002101E061004908D00584
:100470000843F0BD1102090EFBD0FF200243D00556
:10048000F0BD0A460146104654E700005A0C000031
:100490000000C07F0102C21504D00123DB0719430D
:1004A000002A0ADB9E239A1A02D40846D0407047DD
:1004B000FF2241001206914201D900207047C01767
:1004C000C04370471F22030C02D10F2200041CD02E
:1004D000030E01D10002083A030F01D10001121FDF
:1004E000830F01D18000921E002801DB4000521EC4
:1004F000D2055118021251181922904004D3491CF8
:10050000002801D14908490008467047C10FC907B2
:1005100000D04042012292071143D3E7012189070D
:10052000D0E7754600F024F8AE460500694653460C
:10053000C008C000854618B020B5FFF739FE60BC82
:1005400000274908B6460026C0C5C0C5C0C5C0C5FD
:10055000C0C5C0C5C0C5C0C5403D49008D46704737
:1005600010B50446C046C0462046FFF7F4FD10BD56
:10057000004870471800002001491820ABBEFEE774
:1005800026000200704710B50B460021846A1C4308
:10059000846200BF0C4614432146416110BD00290E
:1005A00004D0826801231A43826003E08268022338
:1005B0001A438260704730B50146002000220023B4
:1005C0008C680125ED072C438C6000BF8C68E30F1D
:1005D000DB07521C0F242403A24201D0002BF5D1CB
:1005E0008C68E40FE407002C01D1086C00E00020C7
:1005F00030BD0146086C80B2704730B5024600201D
:100600000023012424060C40002C05D09468012509
:100610002D06AC43234600E013681C460C40002C1A
:1006200001D0012000E0002030BD000010B5002204
:10063000C268084B1A400C7964030B6823438C682A
:100640002343CC6823430C6923434C6923431A4357
:10065000C26010BD03D2FFFF816804221143816094
:1006600070470000002907D0074A12680123834021
:100670001A43054B1A6006E0034A126801238340BF
:100680009A43014B1A6070470074004030B5002255
:100690000023084C22683E2484401546A5432A4680
:1006A0004D680C682C4323461C4684402243014C71
:1006B000226030BD0074004008B500220092054A57
:1006C000009202460832009BD2180092009A1160F4
:1006D00008BD00000074004010B5002908D0094A88
:1006E000526804090123A3401A43064B5A6007E0ED
:1006F000044A536804090122A2409343014A53600B
:1007000010BD000000740040F0B50A46002100232F
:10071000002400BF3DE001258D402B4615681D409B
:100720002C469C4234D11579012D02D01579022D29
:1007300016D185684F000326BE40B54385605579C4
:100740004E00B540866835438560858801268E4019
:10075000B5438580858896798E40B6B235438580CD
:1007600005684F000326BE40B543056015794E006D
:10077000B540066835430560C5684F000326BE4096
:10078000B543C560D5794E00B540C6683543C560F0
:10079000491C1029BFD3F0BD10B5002819DA1A4A38
:1007A00003071B0F083B9B089B00D2588307DC0EF6
:1007B000FF23A3409A438B071B0E8407E40EA3403C
:1007C0001A43114B0407240F083CA408A4001A5133
:1007D00018E00E4A03231B02D21883089B00D2584C
:1007E0008307DC0EFF23A3409A438B071B0E84076D
:1007F000E40EA3401A43054B032424021B1984086A
:10080000A4001A5110BD00001CED00E000E100E062
:10081000002905D0054A52690243044B5A6104E09D
:10082000024A52698243014B5A61704700100240EC
:10083000002905D0054AD2690243044BDA6104E07D
:10084000024AD2698243014BDA61704700100240CC
:10085000002905D0054A92690243044B9A6104E0DD
:10086000024A92698243014B9A617047001002402C
:100870000CB5002001900090314800680121090466
:1008800008432F49086000BF2D4800680121490432
:10089000084000900198401C01900098002804D165
:1008A0000521090201988842EED1254800680121FE
:1008B00049040840002802D00120009001E00020F7
:1008C00000900098012839D111201E4908601C4869
:1008D00040681B49486008464068486008464068D0
:1008E0003F210904884316494860084640681121A1
:1008F00009040843124948600846006801210906B6
:1009000008430F49086000BF0D48006801214906EF
:1009100008400028F8D00A4840688008800008494C
:10092000486008464068022108430549486000BF06
:10093000034840680C2108400828F9D10CBD00008C
:10094000001002400020024004480068002804D043
:1009500002480068401E01490860704700000020FE
:1009600010B51B4800680121084319490860084672
:10097000406818490840164948600846006816490A
:10098000084013490860084600680121890488432B
:100990000F490860084640683F21090488430C4914
:1009A00048600846C06A00090001C8620846006B3A
:1009B000FF2154318843064908630846406B4008CC
:1009C0004000486300208860FFF752FF10BD000020
:1009D000001002400CB8FFF8FFFFF6FE00B589B02A
:1009E00001214802FFF734FF01214804FFF710FFFF
:1009F00001200790032108A801700021C17007A9F8
:100A00000920C006FFF780FE002001900121684602
:100A10000172002003900590069001A90948FFF794
:100A200005FE0848FFF7C7FD01210648FFF7B7FD9F
:100A300000BF05490348FFF7E0FD0028F9D009B0E1
:100A400000BD000000240140010000011FB501218C
:100A50004807FFF7EDFE01214804FFF7D9FE1020FB
:100A600002900321684601730021C17302A9092085
:100A7000C006FFF749FE0020009001906946FFF78D
:100A800005FE01210020FFF7EDFD1FBD03490860B1
:100A900000BF024909680029FBD17047000000200F
:100AA000FFB581B00D4616466C1E012701E00A20F5
:100AB00047432046641E0028F9D1002410E039463F
:100AC0000198FFF787FB3030305539460198FFF722
:100AD00081FB0191641C0A213846FFF77BFB074626
:100AE000AC4203D20498401EA042E8D80020305502
:100AF00005B0F0BD10B5012000F002F810BD0000F7
:100B000070B504460025002625462806050F280155
:100B1000F021084006460120400319490881800061
:100B2000174920398861F020164908811548203876
:100B300086610520FFF7AAFF0120C0031049088144
:100B400025462D072D0F2801F021084006460120DB
:100B500040030B4908818000094920398861F02051
:100B6000084908810748203886610120FFF78EFF79
:100B70000120C003024908810520FFF787FF70BDEF
:100B8000200400482008004870B5044600250026CF
:100B900025462806050F2801F021084006460520B5
:100BA000400315498861F020144908811348203812
:100BB00086610520FFF76AFF0120C0030E4920313E
:100BC000088125462D072D0F2801F02108400646F3
:100BD0000520400308498861F0200849088107483A
:100BE000203886610520FFF751FF0120C00302492C
:100BF0002031088170BD0000000400482008004832
:100C000070B504460D460026022C03D9102D01D9DB
:100C1000761E1EE0002C05D129468031C8B2FFF7B0
:100C20006FFF16E0012C05D12946C031C8B2FFF78D
:100C300067FF0EE0022C05D129469431C8B2FFF7B8
:100C40005FFF06E0032C04D12946D431C8B2FFF778
:100C500057FF304670BD000010B53848006880016D
:100C6000800936490860084600681521890608434E
:100C7000324908600846C0681521890608432F4993
:100C8000C860084680681521890608432B4988609A
:100C90002B480068FF21090288432949086008465B
:100CA0000068552109020843254908600846C068C4
:100CB0005521090208432249C86008468068552129
:100CC000090208431E498860FF20F530FFF7DEFE69
:100CD000002406E02220FFF713FF0A20FFF7D6FECC
:100CE000641C282CF6D32C20FFF70AFF3220FFF7D4
:100CF000CDFE0820FFF704FF3220FFF7C7FE0120DA
:100D0000FFF7FEFE3220FFF7C1FE0620FFF7F8FED8
:100D10003220FFF7BBFE1420FFF7F2FE3220FFF770
:100D2000B5FE0C20FFF7ECFE3220FFF7AFFE80206F
:100D3000FFF7E6FE6420FFF7A9FE10BD000400489F
:100D40000008004810B50446E0B2FFF71DFF10BDD3
:100D500070B50446102503E02078FFF7F3FF641C0C
:100D60002078002804D02846691ECDB20028F3D18F
:100D700070BD00008EB0202250A106A8FFF7F2F946
:100D800000257F26F605554840690121490408439E
:100D900052494861084640690121890408434F4986
:100DA0004861084640690121C90408434B4948612C
:100DB0004B48006801210904084349490860084676
:100DC0000068C9010843464908600920C006006858
:100DD000800880000921C90608607D21C9004148BA
:100DE0000068FFF7F7F904463F48844200D90EE057
:100DF0002002000A401E3D4948610321081FFFF7F9
:100E0000CBFC0020394988610720086100BFFFF74B
:100E100023FFFFF7E3FD032201213548FFF7B3FB72
:100E20003348FFF719FCFFF711FE32A0FFF790FFE0
:100E300000210120FFF7E4FE32A0FFF789FF7D20AB
:100E40000001FFF723FEFFF755FE33A0FFF780FFF9
:100E500032E0002D18D12648FFF7CBFB0190019816
:100E6000FFF75CFB04463149FFF764FA064610239E
:100E700002AA05210198FFF713FE00210120FFF7C8
:100E8000BFFE02A8FFF764FF06A9485DFFF746FB17
:100E90003146009000F04CF80746FFF7FBFA84B2A9
:100EA00021460820FFF708FC01210020FFF714FC71
:100EB000681CC506ED0E00BFCBE700008098B0C6E9
:100EC000DAEAF5FDFFFDF5EADAC6B09880674F393A
:100ED00025150A0200020A1525394F670010024045
:100EE0000008004804000020FFFFFF0000E000E0D1
:100EF0000024014020202057534E204B49542020ED
:100F0000000000002020204144432044414320545D
:100F100045535420200000004144432056616C7525
:100F2000652028504130293A2000000000F07F451C
:100F300070B5420064414B005C41120E39D01B0E6B
:100F400038D0FF2A3CD0FF2B3AD040024902400A59
:100F5000490A060045184E43000A090AD2184843B8
:100F6000ED017F3A0104731A4019190C4318990FC7
:100F700004D001215B0849075B1A521CD80904D32D
:100F8000401CF50301D19D0607D0FF2A08D2D505E4
:100F900006D0E4072043401970BD0125A843F4E7BB
:100FA000002A01DCE00770BD2402FF202043C005B9
:100FB00070BD1B0EFF2A03D0FF2B01D0E00770BDD0
:100FC000FF2645003606B54206D84D00B54203D887
:100FD000D218FF2A00D0E7E7004870BD0000C07FAC
:100FE0008182838485868788898B8C8D8E8F919270
:100FF00093959697999A9C9D9FA0A2A3A5A7A8AA0E
:10100000ACAEB0B2B3B5B7B9BCBEC0C2C5C7C9CC2F
:10101000CED1D4D7D9DCDFE2E6E9ECF0F3F7FAFE83
:101020004010000800000020180000000401000823
:101030005810000818000020600600002001000879
:1010400000000000006CDC02000000000000000056
:08105000010203040607080970
:040000050800019D51
:00000001FF
