:020000040800F2
:1000000088060020650100086D0100086F010008E6
:1000100000000000000000000000000000000000E0
:100020000000000000000000000000007101000856
:100030000000000000000000730100081108000823
:1000400077010008770100087701000877010008B0
:1000500077010008770100087701000877010008A0
:100060007701000877010008770100087701000890
:100070007701000877010008770100087701000880
:1000800077010008770100080000000077010008F0
:100090007701000877010008770100087701000860
:1000A000770100087701000877010008A50800081B
:1000B0007701000800000000770100080000000040
:1000C00000F002F800F03EF80CA030C80838241800
:1000D0002D18A246671EAB4654465D46AC4201D180
:1000E00000F030F87E460F3E0FCCB6460126334274
:1000F00000D0FB1AA246AB4633431847DC0E000083
:10010000FC0E0000103A02D378C878C1FAD8520722
:1001100001D330C830C101D504680C6070470000BD
:100120000023002400250026103A01D378C1FBD813
:10013000520700D330C100D50B6070471FB51FBDFB
:1001400010B510BD00F0DAF81146FFF7F7FF00F028
:100150002DFE00F0F2F803B4FFF7F2FF03BC00F04D
:10016000F9F800000748804707480047FEE7FEE728
:10017000FEE7FEE7FEE7FEE704480549054A064BB1
:100180007047000029080008C1000008880000200E
:10019000880600208802002088020020002203092F
:1001A0008B422CD3030A8B4211D300239C464EE092
:1001B00003460B433CD4002243088B4231D303094E
:1001C0008B421CD3030A8B4201D394463FE0C30900
:1001D0008B4201D3CB01C01A524183098B4201D318
:1001E0008B01C01A524143098B4201D34B01C01A03
:1001F000524103098B4201D30B01C01A5241C3087B
:100200008B4201D3CB00C01A524183088B4201D3E9
:100210008B00C01A524143088B4201D34B00C01AD5
:100220005241411A00D201465241104670475DE0EA
:10023000CA0F00D04942031000D34042534000226D
:100240009C4603098B422DD3030A8B4212D3FC2216
:10025000890112BA030A8B420CD3890192118B4295
:1002600008D3890192118B4204D389013AD09211AB
:1002700000E08909C3098B4201D3CB01C01A524166
:1002800083098B4201D38B01C01A524143098B422F
:1002900001D34B01C01A524103098B4201D30B0118
:1002A000C01A5241C3088B4201D3CB00C01A52413D
:1002B00083088B4201D38B00C01A5241D9D2430824
:1002C0008B4201D34B00C01A5241411A00D2014661
:1002D000634652415B10104601D34042002B00D5CB
:1002E0004942704763465B1000D3404201B500208D
:1002F000C046C04602BD704770477047754600F063
:1003000025F8AE46050069465346C008C00085463C
:1003100018B020B5FFF730FF60BC00274908B6468B
:100320000026C0C5C0C5C0C5C0C5C0C5C0C5C0C504
:10033000C0C5403D49008D46704710B50446C046D3
:10034000C0462046FFF707FF10BD00000048704779
:100350002800002001491820ABBEFEE7260002005D
:10036000704710B50B460021846A1C43846200BFAD
:100370000C4614432146416110BD002904D0826817
:1003800001231A43826003E0826802231A438260D9
:10039000704730B501460020002200238C680125FB
:1003A000ED072C438C6000BF8C68E30FDB07521C09
:1003B0000F242403A24201D0002BF5D18C68E40F56
:1003C000E407002C01D1086C00E0002030BD01469C
:1003D000086C80B2704730B502460020002301242B
:1003E00024060C40002C05D0946801252D06AC4352
:1003F000234600E013681C460C40002C01D001206D
:1004000000E0002030BD000010B50022C268084B9B
:100410001A400C7964030B6823438C682343CC682F
:1004200023430C6923434C6923431A43C26010BD24
:1004300003D2FFFF81680422114381607047F0B549
:100440000A4600210023002400BF3DE001258D4025
:100450002B4615681D402C469C4234D11579012D40
:1004600002D01579022D16D185684F000326BE40B3
:10047000B543856055794E00B54086683543856043
:10048000858801268E40B5438580858896798E4083
:10049000B6B23543858005684F000326BE40B5439C
:1004A000056015794E00B540066835430560C5689E
:1004B0004F000326BE40B543C560D5794E00B54018
:1004C000C6683543C560491C1029BFD3F0BDF0B5DF
:1004D000002300244D07EE0E1546B5402B46CD10E7
:1004E000AE0005462035AD594E07F70E0F26BE402B
:1004F000B543CE10B60007462037BD51CD10AE0033
:100500003D46AD591D432C46CD10AD003E467451BD
:10051000F0BD000010B5002819DA1A4A03071B0FB6
:10052000083B9B089B00D2588307DC0EFF23A340A7
:100530009A438B071B0E8407E40EA3401A43114B0A
:100540000407240F083CA408A4001A5118E00E4A1E
:1005500003231B02D21883089B00D2588307DC0EAA
:10056000FF23A3409A438B071B0E8407E40EA3408E
:100570001A43054B032424021B198408A4001A51B2
:1005800010BD00001CED00E000E100E0002905D0F6
:10059000054A52690243044B5A6104E0024A526917
:1005A0008243014B5A61704700100240002905D078
:1005B000054A92690243044B9A6104E0024A926937
:1005C0008243014B9A61704700100240FEB5044619
:1005D0000025002600200190009000275048406828
:1005E0000C2108400546002D04D0042D05D0082D0F
:1005F00028D105E04B48206027E04A48206024E0ED
:10060000474840680F21890408400646444840682E
:100610000121090408400190B00C861C01980028B3
:1006200003D14148704320600BE03D48C06A000799
:10063000000F401C00903B480099FFF7AFFD70434E
:10064000206002E03748206000BF00BF34484068A7
:10065000F021084005462D093448475D2068F840E0
:1006600060602F48406807210902084005462D0AAE
:100670002E48475D6068F840A0602948006BFF2164
:1006800001310840884202D02948E0600DE024484A
:100690004068012189030840884203D0A0684008CF
:1006A000E06002E0A0688008E0601D48006B402127
:1006B0000840402802D01F48206102E00120C0030A
:1006C00020611748006B10210840102802D01548FF
:1006D000606101E0206860611148006B8007800F55
:1006E000002802D1A068A06119E00D48006B8007C6
:1006F000800F012802D12068A06110E00848006B3B
:100700008007800F022802D18003A06107E004481F
:10071000006B8007800F032801D10248A061FEBD55
:100720000010024000127A0000093D00180000206D
:10073000809FD500128000000CB500200190009031
:10074000314800680121090408432F49086000BFAF
:100750002D48006801214904084000900198401C80
:1007600001900098002804D10521090201988842CF
:10077000EED125480068012149040840002802D034
:100780000120009001E0002000900098012839D15C
:1007900011201E4908601C4840681B4948600846F3
:1007A00040684860084640683F210904884316496C
:1007B000486008464068112109040843124948600E
:1007C000084600680121090608430F49086000BF78
:1007D0000D4800680121490608400028F8D00A4861
:1007E0004068800880000849486008464068022147
:1007F00008430549486000BF034840680C21084091
:100800000828F9D10CBD0000001002400020024071
:1008100004480068002804D002480068401E0149CE
:10082000086070470000002010B51B4800680121D7
:1008300008431949086008464068184908401649A5
:100840004860084600681649084013490860084691
:1008500000680121890488430F4908600846406800
:100860003F21090488430C4948600846C06A0009D2
:100870000001C8620846006BFF21543188430649D5
:1008800008630846406B40084000486300208860C9
:10089000FFF752FF10BD0000001002400CB8FFF837
:1008A000FFFFF6FE10B50B490B4800F02DF80028AD
:1008B0000ED0094800F0BCF8C4B22146064800F04A
:1008C000BCF800BF8021044800F014F80028F9D0DB
:1008D00010BD00000501050000380140002904D0CA
:1008E000026801231A43026003E0026852085200C2
:1008F0000260704702460020D3690B40002B01D0F4
:10090000012000E00020704770B502460B4600242D
:100910000021002500201E04350ED9B201268E408C
:100920003146012D02D11668314006E0022D02D178
:100930005668314001E0966831401C0C0126A64003
:100940003446D6693440002903D0002C01D0012060
:1009500000E0002070BD0000F0B589B004460D46EF
:1009600000270020089000262068400840002060F2
:10097000666803210903304688430646A868064393
:100980006660266827480640E96868680843296960
:10099000084306432660A6680321090230468843BF
:1009A000064668690643A66001A8FFF70FFE1E48C9
:1009B000844202D10798089001E0039808902068CB
:1009C0000121C903084000280CD02968089A50006A
:1009D000FFF7E4FB07462968089A5000FFF7DEFBA3
:1009E0000E4609E029680898FFF7D8FB07462968F2
:1009F0000898FFF7D3FB0E4628684008B04200D89D
:100A00007F1C20680121C9030840002806D0380750
:100A1000460F38460549084030430746A78109B0CC
:100A2000F0BD0000F3E9FFFF00380140F0FF0000D7
:100A30000146888CC005C00D7047CA05D20D0285DD
:100A40007047000000B589B001214802FFF7AEFDF4
:100A500001214804FFF79AFD01200790032108A80F
:100A600001700021C17007A90920C006FFF7E7FC4B
:100A7000002001900121684601720020039005903A
:100A8000069001A90D48FFF7BFFC0C48FFF781FC59
:100A900001210A48FFF771FC00BF09490748FFF729
:100AA0009AFC0028F9D0032280210448FFF759FC62
:100AB0000248FFF7BFFC09B000BD00000024014060
:100AC000010000010349086000BF024909680029CC
:100AD000FBD1704700000020FFB581B00D461646DF
:100AE0006C1E012701E00A2047432046641E0028AF
:100AF000F9D1002410E039460198FFF74FFB303060
:100B0000305539460198FFF749FB0191641C0A21D1
:100B10003846FFF743FB0746AC4203D20498401E19
:100B2000A042E8D80020305505B0F0BD10B5012036
:100B300000F002F810BD000070B504460025002644
:100B400025462806050F2801F02108400646012009
:100B50004003194908818000174920398861F02035
:100B6000164908811548203886610520FFF7AAFF3D
:100B70000120C0031049088125462D072D0F2801AB
:100B8000F02108400646012040030B4908818000FF
:100B9000094920398861F020084908810748203830
:100BA00086610120FFF78EFF0120C0030249088102
:100BB0000520FFF787FF70BD20040048200800488B
:100BC00070B504460025002625462806050F280195
:100BD000F021084006460520400315498861F020B1
:100BE000144908811348203886610520FFF76AFF01
:100BF0000120C0030E492031088125462D072D0F05
:100C00002801F02108400646052040030849886174
:100C1000F020084908810748203886610520FFF741
:100C200051FF0120C00302492031088170BD00003E
:100C3000000400482008004870B504460D46002610
:100C4000022C03D9102D01D9761E1EE0002C05D1EF
:100C500029468031C8B2FFF76FFF16E0012C05D19D
:100C60002946C031C8B2FFF767FF0EE0022C05D15C
:100C700029469431C8B2FFF75FFF06E0032C04D188
:100C80002946D431C8B2FFF757FF304670BD000087
:100C900010B5384800688001800936490860084668
:100CA0000068152189060843324908600846C06873
:100CB0001521890608432F49C86008468068152118
:100CC000890608432B4988602B480068FF210902E8
:100CD00088432949086008460068552109020843ED
:100CE000254908600846C068552109020843224981
:100CF000C860084680685521090208431E4988607B
:100D0000FF20F530FFF7DEFE002406E02220FFF78B
:100D100013FF0A20FFF7D6FE641C282CF6D32C20E4
:100D2000FFF70AFF3220FFF7CDFE0820FFF704FF90
:100D30003220FFF7C7FE0120FFF7FEFE3220FFF74B
:100D4000C1FE0620FFF7F8FE3220FFF7BBFE14209D
:100D5000FFF7F2FE3220FFF7B5FE0C20FFF7ECFEA6
:100D60003220FFF7AFFE8020FFF7E6FE6420FFF79A
:100D7000A9FE10BD000400480008004810B5044654
:100D8000E0B2FFF71DFF10BD70B50446102503E06B
:100D90002078FFF7F3FF641C2078002804D0284651
:100DA000691ECDB20028F3D170BD00001FB54048C8
:100DB00040690121490408433D49486108464069AA
:100DC0000121890408433A494861084640690121E4
:100DD000C9040843364948613648006801210904BE
:100DE00008433449086008460068C901084331498E
:100DF00008600920C0060068800880000921C90633
:100E000008607D21C9002C480068FFF7C7F9044637
:100E10002A48844200D90EE02002000A401E2849D8
:100E200048610321081FFFF775FB002024498861F2
:100E30000720086100BFFFF72BFF00F063F8FFF702
:100E400001FE20A0FFF7A0FF00210120FFF7F4FE24
:100E500020A0FFF799FF7D200001FFF733FEFFF789
:100E600065FE21A0FFF790FF21E02448FFF7AFFACD
:100E70000546463D0A212846FFF79AF984B2102319
:100E80006A4605212046FFF727FE00210120FFF7D3
:100E9000D3FE6846FFF778FF684600F091F818A087
:100EA00000F08EF87D20C000FFF70CFE00BFDCE7ED
:100EB000001002400008004804000020FFFFFF006F
:100EC00000E000E020202057534E204B49542020C2
:100ED000000000002020414443205553415254203B
:100EE000544553542000000054656D706572617460
:100EF0007572652028504137293A000000240140CE
:100F00000D0A000000B589B02348806901218903DA
:100F100008432149886101220921C806FFF7D7FA51
:100F200001220A210920C006FFF7D1FA0120400260
:100F300001900321684641720221017200218172F1
:100F40000121C17201A90920C006FFF778FA01202A
:100F50008002019003216846417202210172012141
:100F60008172C17201A90920C006FFF768FA4B20FF
:100F7000C001039000200490059006900C2007907B
:100F80000020089003A90548FFF7E6FC012103486B
:100F9000FFF7A4FC09B000BD00100240003801407A
:100FA00010B5044600BF80210448FFF7A3FC0028C9
:100FB000F9D021460148FFF740FD10BD003801403F
:100FC00010B5044603E02078FFF7EAFF641C2078A0
:100FD0000028F8D110BD0000F80F00080000002024
:100FE000280000000401000820100008280000204C
:100FF000600600002001000800000000006CDC0218
:1010000000000000000000000102030406070809B8
:10101000000000000102030401020304060708099E
:040000050800016589
:00000001FF
