:020000040800F2
:1000000078060020650100086D0100086F010008F6
:1000100000000000000000000000000000000000E0
:100020000000000000000000000000007101000856
:10003000000000000000000073010008B504000883
:1000400077010008770100087701000877010008B0
:1000500077010008770100087701000877010008A0
:100060007701000877010008770100087701000890
:100070007701000877010008770100087701000880
:1000800077010008770100080000000077010008F0
:100090007701000877010008770100087701000860
:1000A0007701000877010008770100087701000850
:1000B0007701000800000000770100080000000040
:1000C00000F002F800F03EF80CA030C80838241800
:1000D0002D18A246671EAB4654465D46AC4201D180
:1000E00000F030F87E460F3E0FCCB6460126334274
:1000F00000D0FB1AA246AB4633431847F804000071
:1001000018050000103A02D378C878C1FAD852070F
:1001100001D330C830C101D504680C6070470000BD
:100120000023002400250026103A01D378C1FBD813
:10013000520700D330C100D50B6070471FB51FBDFB
:1001400010B510BD00F0DAF81146FFF7F7FF00F028
:1001500005FA00F0F2F803B4FFF7F2FF03BC00F079
:10016000F9F800000748804707480047FEE7FEE728
:10017000FEE7FEE7FEE7FEE704480549054A064BB1
:1001800070470000CD040008C1000008780000207E
:10019000780600207802002078020020002203095F
:1001A0008B422CD3030A8B4211D300239C464EE092
:1001B00003460B433CD4002243088B4231D303094E
:1001C0008B421CD3030A8B4201D394463FE0C30900
:1001D0008B4201D3CB01C01A524183098B4201D318
:1001E0008B01C01A524143098B4201D34B01C01A03
:1001F000524103098B4201D30B01C01A5241C3087B
:100200008B4201D3CB00C01A524183088B4201D3E9
:100210008B00C01A524143088B4201D34B00C01AD5
:100220005241411A00D201465241104670475DE0EA
:10023000CA0F00D04942031000D34042534000226D
:100240009C4603098B422DD3030A8B4212D3FC2216
:10025000890112BA030A8B420CD3890192118B4295
:1002600008D3890192118B4204D389013AD09211AB
:1002700000E08909C3098B4201D3CB01C01A524166
:1002800083098B4201D38B01C01A524143098B422F
:1002900001D34B01C01A524103098B4201D30B0118
:1002A000C01A5241C3088B4201D3CB00C01A52413D
:1002B00083088B4201D38B00C01A5241D9D2430824
:1002C0008B4201D34B00C01A5241411A00D2014661
:1002D000634652415B10104601D34042002B00D5CB
:1002E0004942704763465B1000D3404201B500208D
:1002F000C046C04602BD704770477047754600F063
:1003000025F8AE46050069465346C008C00085463C
:1003100018B020B5FFF730FF60BC00274908B6468B
:100320000026C0C5C0C5C0C5C0C5C0C5C0C5C0C504
:10033000C0C5403D49008D46704710B50446C046D3
:10034000C0462046FFF707FF10BD00000048704779
:100350001800002001491820ABBEFEE7260002006D
:100360007047000010B5002819DA1A4A03071B0F5E
:10037000083B9B089B00D2588307DC0EFF23A34059
:100380009A438B071B0E8407E40EA3401A43114BBC
:100390000407240F083CA408A4001A5118E00E4AD0
:1003A00003231B02D21883089B00D2588307DC0E5C
:1003B000FF23A3409A438B071B0E8407E40EA34040
:1003C0001A43054B032424021B198408A4001A5164
:1003D00010BD00001CED00E000E100E00CB50020C5
:1003E00001900090314800680121090408432F4919
:1003F000086000BF2D4800680121490408400090B2
:100400000198401C01900098002804D105210902A0
:1004100001988842EED1254800680121490408402E
:10042000002802D00120009001E0002000900098F8
:10043000012839D111201E4908601C4840681B4919
:100440004860084640684860084640683F21090403
:10045000884316494860084640681121090408434A
:1004600012494860084600680121090608430F49FF
:10047000086000BF0D4800680121490608400028B7
:10048000F8D00A484068800880000849486008465B
:100490004068022108430549486000BF034840689E
:1004A0000C2108400828F9D10CBD000000100240C2
:1004B0000020024004480068002804D00248006878
:1004C000401E0149086070470000002010B51B481D
:1004D0000068012108431949086008464068184926
:1004E0000840164948600846006816490840134904
:1004F0000860084600680121890488430F490860A4
:10050000084640683F21090488430C494860084672
:10051000C06A00090001C8620846006BFF2154311F
:100520008843064908630846406B4008400048631A
:1005300000208860FFF752FF10BD0000001002404D
:100540000CB8FFF8FFFFF6FE0349086000BF024940
:1005500009680029FBD1704700000020204840694D
:100560000121C90408431E49486108464069012128
:10057000490408431A4948611A48006801210904DE
:100580000843184908607D21C90017480068FFF733
:1005900005FE04461548844200D90EE02002000AF8
:1005A000401E134948610321081FFFF7DBFE0020AE
:1005B0000F4988610720086100BF10E0FF2001306B
:1005C000084988617D20C000FFF7BEFFFF20013091
:1005D0000449203108817D20C000FFF7B5FFEDE719
:1005E000001002400008004804000020FFFFFF0048
:1005F00000E000E0140600080000002018000000E1
:10060000040100082C060008180000206006000005
:100610002001000800000000006CDC020000000067
:0C062000000000000102030406070809A6
:040000050800016589
:00000001FF
