:020000040800F2
:1000000078060020650100086D0100086F010008F6
:1000100000000000000000000000000000000000E0
:100020000000000000000000000000007101000856
:10003000000000000000000073010008290600080D
:1000400077010008770100087701000877010008B0
:1000500077010008770100087701000877010008A0
:100060007701000877010008770100087701000890
:100070007701000877010008770100087701000880
:1000800077010008770100080000000077010008F0
:100090007701000877010008770100087701000860
:1000A0007701000877010008770100087701000850
:1000B0007701000800000000770100080000000040
:1000C00000F002F800F03EF80CA030C80838241800
:1000D0002D18A246671EAB4654465D46AC4201D180
:1000E00000F030F87E460F3E0FCCB6460126334274
:1000F00000D0FB1AA246AB4633431847C4090000A0
:10010000E4090000103A02D378C878C1FAD852073F
:1001100001D330C830C101D504680C6070470000BD
:100120000023002400250026103A01D378C1FBD813
:10013000520700D330C100D50B6070471FB51FBDFB
:1001400010B510BD00F0DAF81146FFF7F7FF00F028
:100150001FFC00F0F2F803B4FFF7F2FF03BC00F05D
:10016000F9F800000748804707480047FEE7FEE728
:10017000FEE7FEE7FEE7FEE704480549054A064BB1
:100180007047000041060008C10000087800002008
:10019000780600207802002078020020002203095F
:1001A0008B422CD3030A8B4211D300239C464EE092
:1001B00003460B433CD4002243088B4231D303094E
:1001C0008B421CD3030A8B4201D394463FE0C30900
:1001D0008B4201D3CB01C01A524183098B4201D318
:1001E0008B01C01A524143098B4201D34B01C01A03
:1001F000524103098B4201D30B01C01A5241C3087B
:100200008B4201D3CB00C01A524183088B4201D3E9
:100210008B00C01A524143088B4201D34B00C01AD5
:100220005241411A00D201465241104670475DE0EA
:10023000CA0F00D04942031000D34042534000226D
:100240009C4603098B422DD3030A8B4212D3FC2216
:10025000890112BA030A8B420CD3890192118B4295
:1002600008D3890192118B4204D389013AD09211AB
:1002700000E08909C3098B4201D3CB01C01A524166
:1002800083098B4201D38B01C01A524143098B422F
:1002900001D34B01C01A524103098B4201D30B0118
:1002A000C01A5241C3088B4201D3CB00C01A52413D
:1002B00083088B4201D38B00C01A5241D9D2430824
:1002C0008B4201D34B00C01A5241411A00D2014661
:1002D000634652415B10104601D34042002B00D5CB
:1002E0004942704763465B1000D3404201B500208D
:1002F000C046C04602BD704770477047754600F063
:1003000025F8AE46050069465346C008C00085463C
:1003100018B020B5FFF730FF60BC00274908B6468B
:100320000026C0C5C0C5C0C5C0C5C0C5C0C5C0C504
:10033000C0C5403D49008D46704710B50446C046D3
:10034000C0462046FFF707FF10BD00000048704779
:100350001800002001491820ABBEFEE7260002006D
:1003600070470000002907D0074A12680123834024
:100370001A43054B1A6006E0034A126801238340C2
:100380009A43014B1A6070470074004030B5002258
:100390000023084C22683E2484401546A5432A4683
:1003A0004D680C682C4323461C4684402243014C74
:1003B000226030BD0074004008B500220092054A5A
:1003C000009202460832009BD2180092009A1160F7
:1003D00008BD00000074004010B5002908D0094A8B
:1003E000526804090123A3401A43064B5A6007E0F0
:1003F000044A536804090122A2409343014A53600E
:1004000010BD000000740040F0B50A460021002332
:10041000002400BF3DE001258D402B4615681D409E
:100420002C469C4234D11579012D02D01579022D2C
:1004300016D185684F000326BE40B54385605579C7
:100440004E00B540866835438560858801268E401C
:10045000B5438580858896798E40B6B235438580D0
:1004600005684F000326BE40B543056015794E0070
:10047000B540066835430560C5684F000326BE4099
:10048000B543C560D5794E00B540C6683543C560F3
:10049000491C1029BFD3F0BD10B5002819DA1A4A3B
:1004A00003071B0F083B9B089B00D2588307DC0EF9
:1004B000FF23A3409A438B071B0E8407E40EA3403F
:1004C0001A43114B0407240F083CA408A4001A5136
:1004D00018E00E4A03231B02D21883089B00D2584F
:1004E0008307DC0EFF23A3409A438B071B0E840770
:1004F000E40EA3401A43054B032424021B1984086D
:10050000A4001A5110BD00001CED00E000E100E065
:10051000002905D0054A52690243044B5A6104E0A0
:10052000024A52698243014B5A61704700100240EF
:10053000002905D0054AD2690243044BDA6104E080
:10054000024AD2698243014BDA61704700100240CF
:100550000CB5002001900090314800680121090489
:1005600008432F49086000BF2D4800680121490455
:10057000084000900198401C01900098002804D188
:100580000521090201988842EED125480068012121
:1005900049040840002802D00120009001E000201A
:1005A00000900098012839D111201E4908601C488C
:1005B00040681B49486008464068486008464068F3
:1005C0003F210904884316494860084640681121C4
:1005D00009040843124948600846006801210906D9
:1005E00008430F49086000BF0D4800680121490613
:1005F00008400028F8D00A48406880088000084970
:10060000486008464068022108430549486000BF29
:10061000034840680C2108400828F9D10CBD0000AF
:10062000001002400020024004480068002804D066
:1006300002480068401E0149086070470000002021
:1006400010B51B4800680121084319490860084695
:10065000406818490840164948600846006816492D
:10066000084013490860084600680121890488434E
:100670000F490860084640683F21090488430C4937
:1006800048600846C06A00090001C8620846006B5D
:10069000FF2154318843064908630846406B4008EF
:1006A0004000486300208860FFF752FF10BD000043
:1006B000001002400CB8FFF8FFFFF6FE1FB5012145
:1006C0004807FFF735FF01214804FFF721FF1020FD
:1006D00002900321684601730021C17302A9092019
:1006E000C006FFF791FE0020009001906946FFF7D9
:1006F0004DFE01210020FFF735FE1FBD03490860B4
:1007000000BF024909680029FBD1704700000020A2
:1007100010B5012000F002F810BD000070B50446CD
:100720000025002625462806050F2801F02108404F
:1007300006460120400319490881800017492039E5
:100740008861F02016490881154820388661052007
:10075000FFF7D4FF0120C0031049088125462D076B
:100760002D0F2801F02108400646012040030B49C7
:1007700008818000094920398861F02008490881F2
:100780000748203886610120FFF7B8FF0120C00329
:10079000024908810520FFF7B1FF70BD2004004821
:1007A0002008004870B50446002500262546280686
:1007B000050F2801F0210840064605204003154991
:1007C0008861F0201449088113482038866105208B
:1007D000FFF794FF0120C0030E4920310881254610
:1007E0002D072D0F2801F021084006460520400363
:1007F00008498861F0200849088107482038866147
:100800000520FFF77BFF0120C0030249203108814A
:1008100070BD0000000400482008004870B5044680
:100820000D460026022C03D9102D01D9761E1EE09C
:10083000002C05D129468031C8B2FFF76FFF16E0C2
:10084000012C05D12946C031C8B2FFF767FF0EE081
:10085000022C05D129469431C8B2FFF75FFF06E0AC
:10086000032C04D12946D431C8B2FFF757FF3046D4
:1008700070BD000010B53848006880018009364915
:100880000860084600681521890608433249086057
:100890000846C0681521890608432F49C8600846E4
:1008A00080681521890608432B4988602B48006819
:1008B000FF2109028843294908600846006855213C
:1008C00009020843254908600846C0685521090205
:1008D00008432249C8600846806855210902084338
:1008E0001E498860FF20F530FFF708FF002406E06E
:1008F0002220FFF713FF0A20FFF700FF641C282CBB
:10090000F6D32C20FFF70AFF3220FFF7F7FE08206E
:10091000FFF704FF3220FFF7F1FE0120FFF7FEFE94
:100920003220FFF7EBFE0620FFF7F8FE3220FFF73C
:10093000E5FE1420FFF7F2FE3220FFF7DFFE0C2069
:10094000FFF7ECFE3220FFF7D9FE8020FFF7E6FE2E
:100950006420FFF7D3FE10BD0004004800080048E3
:1009600010B50446E0B2FFF71DFF10BD70B5044698
:10097000102503E02078FFF7F3FF641C207800289F
:1009800004D02846691ECDB20028F3D170BD000006
:1009900000240126374840697104084335494861FD
:1009A00008464069B1040843324948610846406935
:1009B000F10408432F4948612F4800683104084377
:1009C0002D49086008460068C90108432A490860A3
:1009D0000920C0060068800880000921C906086057
:1009E0007D21C90025480068FFF7D8FB054624484B
:1009F000854200D90EE02802000A401E21494861C4
:100A00000321081FFFF748FD00201E4988610720C9
:100A1000086100BFFFF72EFFFFF750FE1AA0FFF797
:100A2000A5FF00210120FFF7F9FE1AA0FFF79EFFA6
:100A30007D200001FFF762FEFFF76AFE1AA0FFF7B4
:100A400095FF15E0A1B20020FFF7B6FC01210020C0
:100A5000FFF7C2FC6420704304191848844203DD88
:100A600004460026F64303E0002C01DA00240126A8
:100A7000E8E70000001002400008004804000020E1
:100A8000FFFFFF0000E000E0202057534E204B49BD
:100A9000542020002020202044414320544553541A
:100AA00020202020000000004441432056616C7546
:100AB000652028504134293A20000000FF0F000033
:100AC000E00A0008000000201800000004010008EF
:100AD000F80A000818000020600600002001000845
:100AE00000000000006CDC020000000000000000BC
:080AF0000102030406070809D6
:040000050800016589
:00000001FF
