:020000040800F2
:1000000018040020D5000008DD000008DF0000080B
:1000100000000000000000000000000000000000E0
:10002000000000000000000000000000E1000008E7
:100030000000000000000000E3000008910200083A
:10004000E7000008E7000008E7000008E7000008F4
:10005000E7000008E7000008E7000008E7000008E4
:10006000E7000008E7000008E7000008E7000008D4
:10007000E7000008E7000008E7000008E7000008C4
:10008000E7000008E700000800000000E7000008A3
:10009000E7000008E7000008E7000008E7000008A4
:1000A000E7000008E7000008E7000008E700000894
:1000B000E700000800000000E70000080000000062
:1000C0000348854600F02AF8004800474503000829
:1000D000180400200448804704480047FEE7FEE774
:1000E000FEE7FEE7FEE7FEE7A9020008C100000800
:1000F00030B50B46014600202022012409E00D46C0
:10010000D5409D4205D31D469540491B2546954047
:1001100040191546521E002DF1DC30BD064C01255C
:10012000064E05E0E36807CC2B430C3C984710349F
:10013000B442F7D3FFF7C8FFF8030008180400081B
:1001400010B5002819DA1A4A03071B0F083B9B0851
:100150009B00D2588307DC0EFF23A3409A438B07F2
:100160001B0E8407E40EA3401A43114B0407240F0F
:10017000083CA408A4001A5118E00E4A03231B02ED
:10018000D21883089B00D2588307DC0EFF23A340BC
:100190009A438B071B0E8407E40EA3401A43054BBA
:1001A000032424021B198408A4001A5110BD000066
:1001B0001CED00E000E100E00CB500200190009093
:1001C000314800680121090408432F49086000BF35
:1001D0002D48006801214904084000900198401C06
:1001E00001900098002804D1052109020198884255
:1001F000EED125480068012149040840002802D0BA
:100200000120009001E0002000900098012839D1E1
:1002100011201E4908601C4840681B494860084678
:1002200040684860084640683F21090488431649F1
:100230004860084640681121090408431249486093
:10024000084600680121090608430F49086000BFFD
:100250000D4800680121490608400028F8D00A48E6
:1002600040688008800008494860084640680221CC
:1002700008430549486000BF034840680C21084016
:100280000828F9D10CBD00000010024000200240F7
:1002900004480068002804D002480068401E014954
:1002A000086070470000002010B51B48006801215D
:1002B000084319490860084640681849084016492B
:1002C0004860084600681649084013490860084617
:1002D00000680121890488430F4908600846406886
:1002E0003F21090488430C4948600846C06A000958
:1002F0000001C8620846006BFF215431884306495B
:1003000008630846406B400840004863002088604E
:10031000FFF752FF10BD0000001002400CB8FFF8BC
:10032000FFFFF6FE02E008C8121F08C1002AFAD13A
:1003300070477047002001E001C1121F002AFBD165
:1003400070470000274840690121C9040843254936
:100350004861084640690121490408432149486130
:10036000214800680121090408431F490860084624
:100370000068C90108431C4908600920C0060068DC
:10038000800880000921C90608607D21C90017483E
:100390000068FFF7ADFE04461548844200D90EE020
:1003A0002002000A401E134948610321081FFFF77D
:1003B000C7FE00200F4988610720086100BF10E0D8
:1003C0000920C006008AC007C00F002804D0FF2003
:1003D00001300549886104E0FF20013002492031E5
:1003E0000881EDE7001002400008004804000020EA
:1003F000FFFFFF0000E000E01804000800000020FC
:100400001800000024030008300400081800002031
:10041000000400003403000800000000006CDC024F
:1004200000000000000000000102030406070809A4
:04000005080000D51A
:00000001FF
