:020000040800F2
:100000009808002091010008990100089B01000850
:1000100000000000000000000000000000000000E0
:100020000000000000000000000000009D0100082A
:1000300000000000000000009F010008D10E000831
:10004000A3010008A3010008A3010008A301000800
:10005000A3010008A3010008A3010008A3010008F0
:10006000A3010008A3010008A3010008A3010008E0
:10007000A3010008A3010008A3010008A3010008D0
:10008000A3010008A301000800000000A30100086C
:10009000A3010008A3010008A3010008A3010008B0
:1000A000A3010008A3010008A3010008650F0008D0
:1000B0009D0F000800000000A301000800000000E0
:1000C00000F002F800F054F80CA030C808382418EA
:1000D0002D18A246671EAB4654465D46AC4201D180
:1000E00000F046F87E460F3E0FCCB646012633425E
:1000F00000D0FB1AA246AB4633431847DC1A000077
:10010000FC1A0000103A02D378C878C1FAD8520716
:1001100001D330C830C101D504680C6070470000BD
:100120000023002400250026103A01D378C1FBD813
:10013000520700D330C100D50B60704710B56E294F
:1001400002D100F0FDF810BD702902D100F00CF9C9
:1001500010BD732902D100F017FC10BD002010BDA6
:100160001FB50098019900F052FB1FBD10B510BDDE
:1001700000F033FC1146FFF7F3FF01F0D3F800F075
:100180004BFC03B4FFF7F2FF03BC00F07BFC000064
:100190000748804707480047FEE7FEE7FEE7FEE71F
:1001A000FEE7FEE704480549054A064B7047000094
:1001B000E90E0008C10000089802002098080020FD
:1001C000980400209804002070B5064600F002FB59
:1001D000056830460B30C408E400B44201D8002062
:1001E00070BD68682A46002818D00168A14211D362
:1001F0000B46214608318B4208D3436801194B60F6
:1002000003681B1B0B605160046001E04168516092
:10021000001D70BD024640680028E6D121462846F0
:1002200000F0E0FA0028DCD170BD70B50446051F6F
:1002300000F0D0FA0068002C1AD0446801E0204693
:100240006468002C01D0AC42F9D301680A18AA42B4
:1002500004D12A6805468918016000E045602868D5
:100260004119A14205D16168696021684018286080
:1002700070BD6C6070BD00000FB41CB5074B06AAC2
:100280007B4469460090059800F053FB00206946C6
:1002900000F062FB1CBC08BC04B01847D506000087
:1002A00070B5044685690068C10601D5302600E0B6
:1002B0002026C00707D070BD62683046A16890470D
:1002C000206A401C20626D1EF6D570BD70B50446D4
:1002D00085690078C00707D170BD6268A1682020D9
:1002E0009047206A401C20626D1EF6D570BD70B527
:1002F0000C460546012A05D02878800600D5EA6913
:10030000002302E0012305E05B1C934202D2E05C83
:100310000028F9D1A869E618C01AA861286AC0188F
:1003200028622846FFF7BCFF04E06A682078A968C5
:10033000641C9047B442F8D32846FFF7C7FF70BD4E
:1003400011680268006A530501D5087009E0D305F9
:1003500001D5088005E0130602D5C21705C100E0EB
:10036000086001207047000070B5136802682024FF
:1003700022430824C4610C461105026002D50E4ACE
:100380007A4402E00C4A7A440E32054600212435B4
:1003900005E01E071B09360F965D6E54491C002BA5
:1003A000F7D105782D0703D5702C01D10123103228
:1003B00000F061FA70BD0000C8170000F3B50446F4
:1003C000002081B020622046E1688847002872D072
:1003D000252802D06268A168ABE0594F00267F440F
:1003E0002046E16888472028054608DB312D06D2E3
:1003F000781920380078002801D00643F0E7B007CC
:1004000001D5042086430020E0610746A0612A2D23
:100410000AD0284600F0B7FE002827D0B8000019FF
:10042000303D0090856119E00298BA00121902C8A7
:10043000916102902046E1688847012F054617D157
:10044000E06900281FDA202086431CE000980A217A
:100450008069484300994019303888612046E16836
:100460008847054600F08FFE0028EFD1012F0AD003
:100470002E2D08D12046E1688847054620200643F6
:100480007F1C022FC3DBA069002803DA4042A06171
:1004900001200643F00701D0102086436C2D0BD0BD
:1004A000682D09D04C2D3CD06A2D38D0742D38D011
:1004B0007A2D36D016E040E0E1682F462046884786
:1004C000B842054609D16C2F29D001208002E1688D
:1004D000064320468847054604E06C2F1DD0FF20C8
:1004E00001300643002D28D028464138192803D86A
:1004F0000120C00206432035204626602946029A84
:100500001646FFF71BFE002810D001280BD0F61D61
:10051000F008C0000830029055E74020E1E7802055
:10052000D5E70020D3E7361D02964CE762682846DF
:10053000A1689047206A401C44E7206AFEBD000085
:1005400092170000034670B502460B439B070FD17C
:100550000E4CE60100E008C208C91D1B9D43354250
:10056000F9D0D9B21170521C00290DD01B0AF8E73E
:100570000B78491C1370521C002B05D00B78491CBA
:100580001370521C002BF3D170BD0000010101015A
:1005900030B5441C03E00178401C00290DD08107D0
:1005A000F9D10B4BDD0104C8D11A91432940FAD08F
:1005B000001B0A0603D0C01E30BD001B30BD0A045C
:1005C00001D0801E30BD0902FCD0401E30BD0000AD
:1005D000010101010346F0B50B439B072DD1244DCA
:1005E000EF01042A29D308C810C95E1B9E43121FBD
:1005F0003E4017D0D8B2E1B2401A3106014310D1C3
:1006000098B2A1B2401A310401430AD11802210262
:10061000000A090A401A3102014302D1180E210EC4
:10062000401AF0BDA342DCD018BA21BA884201D9E1
:100630000120F0BD0020C043F0BD002A01D1002000
:10064000F0BD03780C78401C491C002B0DD0A34250
:100650000BD1521E09D003780C78401C491C002B8A
:1006600003D0A34201D1521EEBD1181BF0BD0000F4
:1006700001010101002203098B422CD3030A8B42A2
:1006800011D300239C464EE003460B433CD400228A
:1006900043088B4231D303098B421CD3030A8B429C
:1006A00001D394463FE0C3098B4201D3CB01C01A6A
:1006B000524183098B4201D38B01C01A5241430935
:1006C0008B4201D34B01C01A524103098B4201D323
:1006D0000B01C01A5241C3088B4201D3CB00C01A90
:1006E000524183088B4201D38B00C01A5241430808
:1006F0008B4201D34B00C01A5241411A00D201462D
:100700005241104670475DE0CA0F00D049420310C5
:1007100000D34042534000229C4603098B422DD314
:10072000030A8B4212D3FC22890112BA030A8B42BC
:100730000CD3890192118B4208D3890192118B420B
:1007400004D389013AD0921100E08909C3098B4290
:1007500001D3CB01C01A524183098B4201D38B01D3
:10076000C01A524143098B4201D34B01C01A524176
:1007700003098B4201D30B01C01A5241C3088B42BB
:1007800001D3CB00C01A524183088B4201D38B00A6
:10079000C01A5241D9D243088B4201D34B00C01A30
:1007A0005241411A00D20146634652415B10104645
:1007B00001D34042002B00D54942704763465B108D
:1007C00000D3404201B50020C046C04602BD70477C
:1007D00070477047004870473C02002070477047E0
:1007E0007047704738B504460A4600206946C0463F
:1007F000C046002805D002462046009900F0CCF8FB
:10080000012038BD10B5012000F0E0F810BDF8B5AA
:10081000C046C046054600200C461020C04606468D
:10082000A819A0420DD9324669460020C046C046EC
:10083000070001D100F0CAF80098A04200D0054698
:10084000C419FFF7C7FFF61D07460560F008C00092
:100850004619284600F008F8B44204D031463868FA
:10086000A21B00F099F8F8BD002101604160806092
:10087000704710207047FFB504460D4681B0243004
:1008800000902168880604D51022E0699143216018
:1008900000E00120A84201DD471B00E0002704988A
:1008A000A1697A191018081AA0612078C00602D42C
:1008B0002046FFF7F5FC002608E003986268A1686F
:1008C000805D9047206A401C761C20620498864216
:1008D000F3DB2078C0060AD52046FFF7E1FC06E0EE
:1008E0006268A16830209047206A401C2062384628
:1008F0007F1E0028F4DC07E000986268A168405D74
:100900009047206A401C206228466D1E0028F3DCB8
:100910002046FFF7DBFC2078000602D5022005B058
:10092000F0BD0120FBE7000001694A1C0261087864
:10093000704700B58FB002910021059105490193E0
:1009400079440391114604906846FFF737FD0FB0D4
:1009500000BD0000E5FFFFFF0A681070521C0A602E
:10096000704710B54369002B02D0C046C04601E075
:10097000FFF7BDFC012010BD1278014624310A703A
:1009800000224A700122ECE711680022D243E8E716
:10099000004870473402002010B50346406801E06B
:1009A00003464068002801D08842F9D31868C3186C
:1009B0008B4206D0CB1CD808C000001D411A521A29
:1009C0000146081D0A60FFF730FC10BD10B500F0AD
:1009D00031F800F029F810BD70477546FFF7D8FFD1
:1009E000AE46050069465346C008C000854618B0AB
:1009F00020B5FFF7D7FB60BC00274908B6460026A4
:100A0000C0C5C0C5C0C5C0C5C0C5C0C5C0C5C0C5BE
:100A1000403D49008D46704710B50446C046C0466B
:100A20002046FFF7AEFB10BD10B5002801D000F046
:100A300029F810BD10B5012805D0002103A000F051
:100A400027F8012010BD09A1F8E7000053494752DB
:100A5000544D454D3A204F7574206F66206865618E
:100A600070206D656D6F7279000000003A20486556
:100A70006170206D656D6F727920636F7272757031
:100A80007465640001491820ABBEFEE72600020031
:100A900070B505460C460A2000E06D1C00F012F807
:100AA000002D06D028780028F7D102E0641C00F061
:100AB00009F8002C02D020780028F7D10A2000F095
:100AC00001F870BD08B5694608700320ABBE08BDCB
:100AD000F0B50A4600210023002400BF3DE00125B7
:100AE0008D402B4615681D402C469C4234D115790B
:100AF000012D02D01579022D16D185684F000326ED
:100B0000BE40B543856055794E00B5408668354393
:100B10008560858801268E40B543858085889679D5
:100B20008E40B6B23543858005684F000326BE402F
:100B3000B543056015794E00B5400668354305603C
:100B4000C5684F000326BE40B543C560D5794E0049
:100B5000B540C6683543C560491C1029BFD3F0BDF8
:100B6000F0B5002300244D07EE0E1546B5402B4688
:100B7000CD10AE0005462035AD594E07F70E0F26B5
:100B8000BE40B543CE10B60007462037BD51CD104C
:100B9000AE003D46AD591D432C46CD10AD003E463E
:100BA0007451F0BD00218278002A27D0184A03230F
:100BB0001B02D21803789B109B00D1580278920731
:100BC000D30EFF229A400B46934319464278920770
:100BD000120E03789B07DB0E9A4011430C4A032345
:100BE0001B02D21803789B109B00D1500278D306C9
:100BF000DB0E01229A40064B1A6007E00278D3060A
:100C0000DB0E01229A40024B80331A6070470000CD
:100C100000E100E010B5002819DA1A4A03071B0F9B
:100C2000083B9B089B00D2588307DC0EFF23A340A0
:100C30009A438B071B0E8407E40EA3401A43114B03
:100C40000407240F083CA408A4001A5118E00E4A17
:100C500003231B02D21883089B00D2588307DC0EA3
:100C6000FF23A3409A438B071B0E8407E40EA34087
:100C70001A43054B032424021B198408A4001A51AB
:100C800010BD00001CED00E000E100E0FEB50446F0
:100C90000025002600200190009000275048406861
:100CA0000C2108400546002D04D0042D05D0082D48
:100CB00028D105E04B48206027E04A48206024E026
:100CC000474840680F218904084006464448406868
:100CD0000121090408400190B00C861C01980028ED
:100CE00003D14148704320600BE03D48C06A0007D3
:100CF000000F401C00903B480099FFF7BBFC70437D
:100D0000206002E03748206000BF00BF34484068E0
:100D1000F021084005462D093448475D2068F84019
:100D200060602F48406807210902084005462D0AE7
:100D30002E48475D6068F840A0602948006BFF219D
:100D400001310840884202D02948E0600DE0244883
:100D50004068012189030840884203D0A068400808
:100D6000E06002E0A0688008E0601D48006B402160
:100D70000840402802D01F48206102E00120C00343
:100D800020611748006B10210840102802D0154838
:100D9000606101E0206860611148006B8007800F8E
:100DA000002802D1A068A06119E00D48006B8007FF
:100DB000800F012802D12068A06110E00848006B74
:100DC0008007800F022802D18003A06107E0044859
:100DD000006B8007800F032801D10248A061FEBD8F
:100DE0000010024000127A0000093D00240000209B
:100DF000809FD500128000000CB50020019000906B
:100E0000314800680121090408432F49086000BFE8
:100E10002D48006801214904084000900198401CB9
:100E200001900098002804D1052109020198884208
:100E3000EED125480068012149040840002802D06D
:100E40000120009001E0002000900098012839D195
:100E500011201E4908601C4840681B49486008462C
:100E600040684860084640683F21090488431649A5
:100E70004860084640681121090408431249486047
:100E8000084600680121090608430F49086000BFB1
:100E90000D4800680121490608400028F8D00A489A
:100EA0004068800880000849486008464068022180
:100EB00008430549486000BF034840680C210840CA
:100EC0000828F9D10CBD00000010024000200240AB
:100ED00004480068002804D002480068401E014908
:100EE000086070470400002010B51B48006801210D
:100EF00008431949086008464068184908401649DF
:100F000048600846006816490840134908600846CA
:100F100000680121890488430F4908600846406839
:100F20003F21090488430C4948600846C06A00090B
:100F30000001C8620846006BFF215431884306490E
:100F400008630846406B4008400048630020886002
:100F5000FFF752FF10BD0000001002400CB8FFF870
:100F6000FFFFF6FE10B50B490B4800F04FF80028C4
:100F70000ED0094800F0FEF8C4B22146064800F041
:100F8000FEF800BF8021044800F036F80028F9D0B0
:100F900010BD0000050105000038014010B50C49E6
:100FA0000C4800F033F8002810D00A4800F0E2F8AE
:100FB000C1B209480468601C074A1060074801551F
:100FC00010460068C005C00D1146086010BD000045
:100FD00005010500004400400C0000203400002002
:100FE000002904D0026801231A43026003E002686A
:100FF000520852000260704702460020D3690B403D
:10100000002B01D0012000E00020704770B502469F
:101010000B4600240021002500201E04350ED9B205
:1010200001268E403146012D02D11668314006E07E
:10103000022D02D15668314001E0966831401C0C07
:101040000126A6403446D6693440002903D0002C3E
:1010500001D0012000E0002070BDF8B50346002457
:10106000002600960025002018460E04340ECEB24D
:1010700000960127009EB7403D46022C01D1001D7D
:1010800002E0032C00D10830002A03D006682E436A
:10109000066002E00668AE430660F8BDF0B589B0B0
:1010A00004460D46002700200890002620684008CE
:1010B00040002060666803210903304688430646E5
:1010C000A86806436660266827480640E96868689D
:1010D00008432969084306432660A66803210902DC
:1010E00030468843064668690643A66001A8FFF7B4
:1010F000CDFD1E48844202D10798089001E0039874
:10110000089020680121C903084000280CD02968F4
:10111000089A5000FFF7AEFA07462968089A50006F
:10112000FFF7A8FA0E4609E029680898FFF7A2FA27
:10113000074629680898FFF79DFA0E462868400878
:10114000B04200D87F1C20680121C9030840002854
:1011500006D03807460F3846054908403043074651
:10116000A78109B0F0BD0000F3E9FFFF003801409E
:10117000F0FF00000146888CC005C00D7047CA050D
:10118000D20D0285704730380A2801D201207047FD
:101190000020704710B5044600F01EFB204600F00A
:1011A000A1FB012010BD0000F7B50D461646002436
:1011B0000098FFF7EDF9074600F00EFB1FA000F0C6
:1011C00091FB009800F08EFB1DA000F08BFB3846D1
:1011D000323000F041F838460A30844201D1002014
:1011E000FEBD002425E000F001FB2855002C09D0AD
:1011F000611E4819022213A1FFF7ECF9002801D162
:101200000120EDE7042C08D3211F481905220EA167
:10121000FFF7E0F9002800D1E2E7032C08D3E11E34
:10122000481904220AA1FFF7D5F9002800D1D7E711
:10123000641CB442D7D30020D2E7000041542B00F5
:101240000D0A00004F4B00004552524F5200000063
:101250004641494C00000000F8B5064628E000F081
:10126000C5FAA907890F6A465054681C8407A40F61
:101270006D1C6846005D0D2800D019E0601C8407D5
:10128000A40F6846005D0A2800D011E0601C8407A6
:10129000A40F6846005D0D2800D009E0601C84079B
:1012A000A40F6846005D0A2800D001E0012700BFB6
:1012B000002F01D1B542D2D30120F8BD0349086007
:1012C00000BF024909680029FBD1704704000020D3
:1012D000FFB581B00D4616466C1E012701E00A20BD
:1012E00047432046641E0028F9D1002410E0394607
:1012F0000198FFF7BFF93030305539460198FFF7B4
:10130000B9F90191641C0A213846FFF7B3F9074681
:10131000AC4203D20498401EA042E8D800203055C9
:1013200005B0F0BDFFB095B094A0939096A09290B8
:101330000020819013279748406901214904084300
:10134000944948610846406901218904084391494C
:101350004861084640690121C90408438D49486134
:101360008D4800680121090408438B49086008463C
:101370000068C9010843884908600920C006006860
:10138000800880000921C90608608348006855214B
:1013900009010843804908600846C06855210901D1
:1013A00008437D49C8607D21C9007C480068FFF77B
:1013B00061F906467A48864200D90EE03002000AFA
:1013C000401E784948610321081FFFF723FC0020D5
:1013D000744988610720086100BF00F093F900F0AC
:1013E00021FA00BF3C206C49886108206A492031FD
:1013F000088100BF6CA000F0E3F96EA000F0E0F9F6
:101400007D20C000FFF75AFF00F0E6FA002804D163
:101410006BA000F0D5F900BFFEE76EA000F0D0F998
:1014200071A000F0CDF9002400BF00F05BF98AA99B
:101430000855085D00F0B4F92046641C8AA9085CD0
:101440000A28F2D10021A01E8AAA11546BA000F034
:10145000B7F9002400BF00F045F982A908552A20F9
:1014600000F09EF92046641C82A9085C0A28F2D18B
:101470000021A01E82AA115465A000F0A1F982A942
:101480008AA800F059FA002804D162A000F098F967
:1014900000BFFEE767A000F093F98AA800F090F97A
:1014A0005BA000F08DF967A267A16BA000F0C2FA03
:1014B000002804D169A000F083F900BFFEE770A006
:1014C00000F07EF97848929B939A016801A8FEF794
:1014D000D3FE01A8FFF75CF80646314601A800F0EC
:1014E00007FB10E068464179017100F07FF9014681
:1014F0006846417100793F2805D1684640793E2809
:1015000001D10120819081980028EBD000241FE0B8
:1015100000F06CF92146641C01AA5054BC4217D358
:10152000E11B88183A4661A1FFF754F800280FD153
:10153000002500BF00F05AF901A9485528466D1C46
:10154000085C3C28F6D10021681E01AA115403E072
:10155000012040028442DBD300BF012040028442CC
:1015600006D257A000F02CF901A800F029F902E0FA
:1015700056A000F025F900BFFEE7000031382E39F3
:10158000313332303632000037322E383135323195
:101590003434000000100240000800481000002011
:1015A000FFFFFF0000E000E053544D33324630357A
:1015B000310D0A005769666920544553540D0A00DD
:1015C0005769666920696E6974206572726F720D61
:1015D0000A0000005769666920696E697420646FAB
:1015E0006E650D0A00000000456E74657220726F12
:1015F000757465722069643A200000000D0A456E1A
:101600007465722070617373776F72643A200000A2
:101610000D0A00004572726F7220636F6E6E656313
:1016200074696E6720746F20726F757465720D0A2D
:1016300000000000436F6E6E656374656420746F14
:1016400020000000383000003231362E35382E317F
:1016500039362E3130000000544350004572726F0D
:1016600072206F70656E696E6720706F727420747F
:101670006F203231362E35382E3139362E3130004A
:10168000436F6E6E656374696F6E20746F203231C4
:10169000362E35382E3139362E3130206F70656E4A
:1016A00065640D0A00000000000000203C666F72B7
:1016B0006D61747465645F616464726573733E0028
:1016C000416464726573733A0D0A00004572726F6B
:1016D000722067657474696E6720616464720D0AB4
:1016E0000000000010B500BF20210548FFF784FC72
:1016F0000028F9D00248FFF73DFDC0B210BD000040
:101700000038014000B589B0234880690121890370
:1017100008432149886101220921C806FFF720FA00
:1017200001220A210920C006FFF71AFA012040020F
:1017300001900321684641720221017200218172E9
:101740000121C17201A90920C006FFF7C1F90120DA
:101750008002019003216846417202210172012139
:101760008172C17201A90920C006FFF7B1F94B20AF
:10177000C001039000200490059006900C20079073
:101780000020089003A90548FFF788FC01210348C1
:10179000FFF726FC09B000BD0010024000380140F0
:1017A00010B5044600BF80210448FFF725FC00283F
:1017B000F9D021460148FFF7E2FC10BD0038014096
:1017C00010B5044603E02078FFF7EAFF641C207898
:1017D0000028F8D110BD00000248006802490860E6
:1017E000704700000C0000200800002000BF0A49DC
:1017F00009680A4A12689142F9D008490A680968DA
:10180000491C064B19600649885C19460988C905B8
:10181000C90D1A46116070470C0000200800002016
:101820003400002000B589B02448C0690121490472
:1018300008432249C861012202210920C006FFF79E
:101840008FF9012203210920C006FFF789F904203E
:1018500001900321684641720221017200218172C8
:101860000121C17201A90920C006FFF731F9082042
:1018700001900321684641720221017201218172A7
:10188000C17201A90920C006FFF722F9E120400238
:10189000039000200490059006900C2007900020F3
:1018A000089003A90648FFF7F9FB00F029F8012189
:1018B0000348FFF795FB09B000BD0000001002408F
:1018C0000044004010B5044600BF80210448FFF7E3
:1018D00093FB0028F9D021460148FFF750FC10BDCA
:1018E0000044004010B5044606E02078FFF7EAFF08
:1018F000641C0120FFF7E2FC20780028F5D110BD20
:1019000008B5012209490A48FFF7A7FB0022094947
:101910000748FFF7A2FB1C216846017000214170B7
:1019200001218170FFF73EF908BD000005010500A7
:101930000044004007010700F3B5A3B0074622A00A
:1019400002903846FEF724FE06462498FEF720FE55
:1019500001900298FEF71CFE0446019971180919BE
:10196000881DFEF731FC054628460299FEF7EAFD80
:1019700028193946FEF7E6FDA119481914A1FEF70A
:10198000E1FDA119C91C48192499FEF7DBFDA01936
:10199000C01C0199401840190EA10A7802704978BC
:1019A0004170802203A92846FFF7FEFB002805D1DD
:1019B0002846FEF73AFC002025B0F0BD2846FEF789
:1019C00034FC0120F8E7000043574A41503D220013
:1019D000222C22002200000000B5A1B0802201A923
:1019E0000CA0FFF7E1FB0C48FFF768FC802201A97F
:1019F0000AA0FFF7D9FB002801D121B000BD802249
:101A000001A909A0FFF7D0FB002800D1F5E70120CC
:101A1000F3E7000052535400B80B000043574D4FFA
:101A200044453D31000000004349504D55583D317B
:101A300000000000F7B5A2B00C242298FEF7A8FD24
:101A400006462398FEF7A4FD07462498FEF7A0FD5E
:101A50000190A019C1190198081808300090009849
:101A6000FEF7B2FB05461EA12846FEF76BFD2819BE
:101A70002299FEF767FD2220A11968542C21A01994
:101A8000401C29542221A019801C2954A119C91CC9
:101A900048192399FEF756FD2221A019C019C01C30
:101AA00029542C21A019C019001D2954A119C919A4
:101AB000491D48192499FEF745FD802202A92846B0
:101AC000FFF772FB002805D12846FEF7AEFB002089
:101AD00025B0F0BD2846FEF7A8FB0120F8E700007E
:101AE00043495053544152543D342C2200000000CD
:101AF00070B506460D461820FEF766FB04460FA19A
:101B00002046FEF71FFD0A2322460D3204212846F7
:101B1000FFF7DEFB0D2060740A20A0740020E07443
:101B20002046FFF737FB6420FFF7C8FB3046FFF77E
:101B300031FB2046FEF779FB012070BD41542B4359
:101B4000495053454E443D342C000000303132336F
:101B500034353637383941424344454640305800E1
:101B60003031323334353637383961626364656613
:101B7000403078000400000800000000000000026F
:101B80000001000010000000474554202F6D6170D7
:101B9000732F6170692F67656F636F64652F786D50
:101BA0006C3F6C61746C6E673D25732C2573204807
:101BB0005454502F312E310D0A486F73743A206DF2
:101BC0006170732E676F6F676C65617069732E63E8
:101BD0006F6D0D0A0D0A0000F81B000800000020C0
:101BE00034000000040100082C1C00083400002010
:101BF0006408000020010008881B000800000000A5
:101C00000000000000000000006CDC02000000008A
:101C1000000000000102030406070809000000009C
:0C1C200001020304010203040607080986
:04000005080001915D
:00000001FF
